:020000040000fa
:080000000001040000000000f3
:020000040000fa
:0400080010020000e2
:020000040000fa
:04000c00520200009c
:020000040000fa
:040010009202000058
:020000040000fa
:0400140030020000b6
:020000040000fa
:040018007202000070
:020000040000fa
:04001c0008030000d5
:020000040000fa
:04002000b202000028
:020000040000fa
:0400240008030000cd
:020000040000fa
:0400280008030000c9
:020000040000fa
:04002c0008030000c5
:020000040000fa
:0400300008030000c1
:020000040000fa
:04003400d2020000f4
:020000040000fa
:0400380008030000b9
:020000040000fa
:04003c0008030000b5
:020000040000fa
:0400400008030000b1
:020000040000fa
:0400440008030000ad
:020000040000fa
:0400480008030000a9
:020000040000fa
:04004c0008030000a5
:020000040000fa
:0400500008030000a1
:020000040000fa
:04005400080300009d
:020000040000fa
:040058000803000099
:020000040000fa
:04005c000803000095
:020000040000fa
:040060000803000091
:020000040000fa
:04006400080300008d
:020000040000fa
:040068000803000089
:020000040000fa
:04006c000803000085
:020000040000fa
:040070000803000081
:020000040000fa
:04007400080300007d
:020000040000fa
:040078000803000079
:020000040000fa
:04007c000803000075
:020000040000fa
:040080000803000071
:020000040000fa
:04008400080300006d
:020000040000fa
:040088000803000069
:020000040000fa
:04008c000803000065
:020000040000fa
:040090000803000061
:020000040000fa
:04009400080300005d
:020000040000fa
:040098000803000059
:020000040000fa
:04009c000803000055
:020000040000fa
:0400a0000803000051
:020000040000fa
:0400a400080300004d
:020000040000fa
:0400a8000803000049
:020000040000fa
:0400ac000803000045
:020000040000fa
:0400b0000803000041
:020000040000fa
:0400b400080300003d
:020000040000fa
:0400b8000803000039
:020000040000fa
:0400bc000803000035
:020000040000fa
:0400c0000803000031
:020000040000fa
:0400c400080300002d
:020000040000fa
:0400c8000803000029
:020000040000fa
:0400cc000803000025
:020000040000fa
:0400d0000803000021
:020000040000fa
:0400d400080300001d
:020000040000fa
:0400d8000803000019
:020000040000fa
:0400dc000803000015
:020000040000fa
:0400e0000803000011
:020000040000fa
:0400e400080300000d
:020000040000fa
:0400e8000803000009
:020000040000fa
:0400ec000803000005
:020000040000fa
:0400f0000803000001
:020000040000fa
:0400f40008030000fd
:020000040000fa
:0400f80008030000f9
:020000040000fa
:0400fc0008030000f5
:020000040000fa
:0401000008030000f0
:020000040000fa
:0401040008030000ec
:020000040000fa
:0401080008030000e8
:020000040000fa
:04010c0008030000e4
:020000040000fa
:0401100008030000e0
:020000040000fa
:0401140008030000dc
:020000040000fa
:0401180008030000d8
:020000040000fa
:04011c0008030000d4
:020000040000fa
:0401200008030000d0
:020000040000fa
:0401240008030000cc
:020000040000fa
:0401280008030000c8
:020000040000fa
:04012c0008030000c4
:020000040000fa
:0401300008030000c0
:020000040000fa
:0401340008030000bc
:020000040000fa
:0401380008030000b8
:020000040000fa
:04013c0008030000b4
:020000040000fa
:0401400008030000b0
:020000040000fa
:0401440008030000ac
:020000040000fa
:0401480008030000a8
:020000040000fa
:04014c0008030000a4
:020000040000fa
:0401500008030000a0
:020000040000fa
:04015400080300009c
:020000040000fa
:040158000803000098
:020000040000fa
:04015c000803000094
:020000040000fa
:040160000803000090
:020000040000fa
:04016400080300008c
:020000040000fa
:040168000803000088
:020000040000fa
:04016c000803000084
:020000040000fa
:040170000803000080
:020000040000fa
:04017400080300007c
:020000040000fa
:040178000803000078
:020000040000fa
:04017c000803000074
:020000040000fa
:040180000803000070
:020000040000fa
:04018400080300006c
:020000040000fa
:040188000803000068
:020000040000fa
:04018c000803000064
:020000040000fa
:040190000803000060
:020000040000fa
:04019400080300005c
:020000040000fa
:040198000803000058
:020000040000fa
:04019c000803000054
:020000040000fa
:0401a0000803000050
:020000040000fa
:0401a400080300004c
:020000040000fa
:0401a8000803000048
:020000040000fa
:0401ac000803000044
:020000040000fa
:0401b0000803000040
:020000040000fa
:0401b400080300003c
:020000040000fa
:0401b8000803000038
:020000040000fa
:0401bc000803000034
:020000040000fa
:0401c0000803000030
:020000040000fa
:0401c400080300002c
:020000040000fa
:0401c8000803000028
:020000040000fa
:0401cc000803000024
:020000040000fa
:0401d0000803000020
:020000040000fa
:0401d400080300001c
:020000040000fa
:0401d8000803000018
:020000040000fa
:0401dc000803000014
:020000040000fa
:0401e0000803000010
:020000040000fa
:0401e400080300000c
:020000040000fa
:0401e8000803000008
:020000040000fa
:0401ec000803000004
:020000040000fa
:0401f0000803000000
:020000040000fa
:0401f40008030000fc
:020000040000fa
:0401f80008030000f8
:020000040000fa
:0401fc0008030000f4
:020000040000fa
:10020000ef8220000eff27000e0188000000000092
:10021000000020000000e000020032000001200089
:100220002002880014000700fb0007000000e00027
:1002300003003a000089200001002000020037007e
:100240000000200001002000810f7000010032003a
:1002500014000700000020000000e000020032004f
:100260000000020000000000240602000000000060
:100270000040da000000fe004440a90020002000f9
:100280000000e00003003200100020009001880010
:100290004440a800000006008a1f78008b1f7800e9
:1002a00000000600a1028800800478000000eb0036
:1002b0001f003700e284440054a0b4009905ba003e
:1002c000e284440054a0b4009906ba00e2844400d9
:1002d00054a0b4000006eb00476fde00fd07b2003b
:1002e000ae018800636ce10003003a00eaff0700fa
:1002f0000000eb000e003700606ce10008003a00df
:10030000004deb000a05e800020039003420ec0043
:100310000af0a0008b05e900f9ff3e000400370059
:100320006168e100010032000086eb000b0007006d
:1003300019c7ba001905ba000e04e00003003a001c
:100340000a00e000dbff3a0000000600fe07b200f2
:10035000ae0288008a047800f5ff37000cd0a300b5
:10036000e20f4d001c00390089027800354dba00bb
:100370000a05e800020039003420ec000af0a00071
:100380008b05e9000f003200254dba000a05e80090
:10039000020039003420ec000af0a0008b05e900cf
:1003a000080032000c00e0000600320015cdba0053
:1003b0000a05e800020039003420ec000af0a00031
:1003c0008b05e9008984e80054a0b4000b00e0002c
:1003d000e2ff3a00000006009902ba00055d7800cd
:1003e0008b05e900f7ff3200c82ade00055d7800c2
:1003f0008b05e900f3ff32000c00e000f1ff320052
:1004000019ddba00eeff3700d80704000000000035
:10041000b806040000000000c2050400000000004f
:100420003600f800809fbe00829fbe00849fbe0001
:10043000869fbe000000fa008020a9000000eb00ab
:100440004b0307000080fa004f03be004f02be00be
:100450004f01be004f00be003600f900004006000c
:100460003600f800809fbe00829fbe00849fbe00c1
:10047000869fbe000000fa00420307008040a900ea
:10048000100020003a0307000080fa004f03be006e
:100490004f02be004f01be004f00be003600f90003
:1004a000004006003600f800809fbe00829fbe001c
:1004b000849fbe00869fbe000000fa008060a900f5
:1004c000200020002a0307000080fa004f03be002e
:1004d0004f02be004f01be004f00be003600f900c3
:1004e000004006003600f800809fbe00829fbe00dc
:1004f000849fbe00869fbe000000fa008080a90095
:10050000300020001a0307000080fa004f03be00ed
:100510004f02be004f01be004f00be003600f90082
:10052000004006003600f800809fbe00829fbe009b
:10053000849fbe00869fbe000000fa008600a900ce
:10054000700020000a0307000080fa004f03be007d
:100550004f02be004f01be004f00be003600f90042
:10056000004006003600f800809fbe00829fbe005b
:10057000849fbe00869fbe000000fa0085e0a900af
:1005800080002000fa0207000080fa004f03be003e
:100590004f02be004f01be004f00be003600f90002
:1005a000004006003600f800809fbe00829fbe001b
:1005b000849fbe00869fbe000000fa00504080006d
:1005c0000000e00002003200504080000000010006
:1005d000d0822000104078008040e800d0822000c7
:1005e00001487800c082200011c0b30001487800a3
:1005f0008860a9000080fa004f03be004f02be00d1
:100600004f01be004f00be003600f900004006005a
:100610000040da000000fe0000000500889fbe00d8
:100620008a9fbe008c1f78006c00070073003300a7
:1006300003866c006450e1002e0032006420e1006b
:10064000330032006150e1002f0032006120e100f0
:100650003100320085855500eb07b000090020000d
:1006600008042000050037000804440089844c0079
:100670000a0031000603430087834b00000153004a
:1006800081815b00f8ff33000203be000800a00078
:100690000804440089844c00f6ff3900c639dd00a7
:1006a0008301730001003200130020008904d1008f
:1006b0000884d3000998a300050032000800a700b1
:1006c0000300a0008904d1000884d3008b05e80052
:1006d0008904d1000884d3000001eb000281d2001c
:1006e0001800070001f0a1000cf0a70001f0a00025
:1006f0004b0037006420e1004d0032000801be00cd
:100700000200be00f7ff37006120e1004800320020
:100710006000b800f3ff37000000200001f8270058
:10072000f0ff37001400200078003700f4ff2f009e
:10073000760037006011b8008f00370004002000f9
:100740007200370081002000618055000b003d00e1
:100750000b00200061fe2f000100e1001d003400ad
:1007600082817100610164008904d1000884d30092
:100770000000e800faff3a00710020006100640008
:1007800003007000020060000900320061044400b0
:10079000e0844c000988a500050032008b05e800c4
:1007a0006808e10002003a008904d1000884d300ff
:1007b000f20f20000258e10005003d00c75ddd009a
:1007c000f907b20089807500080078000000060073
:1007d0000bf827008b007800000005000004be0025
:1007e000940007000003be000405be000200be0026
:1007f00090000700844f7500000006000200be0054
:100800006450e100050036006420e100020036007b
:100810000968a30001003a000800be000160a000c2
:100820004f0678004f05be004f04be0000000600d2
:10083000f0ff2f00f1ff2700f9ff3700889fbe006f
:100840008a9fbe008c1f7800e4ff0700ebff330097
:1008500003866c006450e100240032006420e10053
:10086000270032006150e100220032006120e100e7
:10087000210032008b854200eb07b1000134b80043
:10088000003ab8000804420089844a00013ab800de
:100890000030b8008880400009014a00040033009d
:1008a0000000400081804800020149008b05e900fa
:1008b000c909dd008301700001003200130020002f
:1008c000c814de004814dd004709de001200b20043
:1008d000c808de00088470009aff070001f0a1003c
:1008e0000cf0a70001f0a000cdff37006120e1006f
:1008f000cfff32000801be000200be00f7ff370044
:100900006150e100fcff3a00c9ff3700889fbe003c
:100910008a9fbe00841f7800b0ff07004f00780058
:1009200011003300f0ff2f00838f6c0006003b00a6
:10093000040565000a00a7000800370009f0a600ba
:100940001000200008003700820f5400838f5c00e5
:10095000030039001000200001003e0000002000cc
:1009600009f0a7000000ea004f05be004f04be00da
:100970000000e00000000600889fbe008a9fbe00c5
:1009800000827000040271000482710026003200af
:100990000004be000200be006011b8006b09200018
:1009a000950220000182cf000a0039000541b10004
:1009b0000082cf00070039000541b1000982cf0055
:1009c000040039000541b1000882cf000100390060
:1009d0000541b10005425200120032000a003b00fe
:1009e00082817100610164008100d1000080d30028
:1009f0008984d3000884d3008b05e8000442e80012
:100a0000f7ff3a00070037000804440089844c00cf
:100a100000004800818048008b05e9000442e9009d
:100a2000f9ff3a0047ff07004f05be004f04be0024
:100a300000000600c70ade00f107b200f50fb200a1
:100a400008003200e1cf4200020032000170a00035
:100a500024000500810f7000010032000408050029
:100a600044000500810f700002003a0014000500e8
:100a70008502e9000000400081c04800fcff3b0007
:080a80000170a0002400050034
:020000040000fa
:100a88000000fa003427a9000080fa0000000600e0
:100a98000200fa00000f78001e007800e10f5000f5
:100aa8000d003200e10f500005003900e20f500040
:100ab8000f003200e30f5000130032001800370017
:100ac800d139800000fe2f00008060005000b30084
:100ad800d039880012003700d139800000fe2f007d
:100ae80000806000c001b300d03988000c003700d6
:100af800d139800000fe2f0000806000d001b300d3
:100b0800d039880006003700d139800000fe2f0058
:100b180000806000e001b300d039880000000000c8
:100b28000080fa00000006000400fa001007980090
:100b380001388000010f78001e0078000080fa005c
:100b4800000006000400fa0010079800a039800091
:100b580000407800614060000080fb0000f0a700c2
:100b68000000ea000000ea004f00de00004f7800b5
:100b78001e4078000080fa00000006000000fa001d
:100b8800881f780010408000214080006011b80064
:100b9800e2fe07000000e00002003a00a146a800bb
:100ba80001003700a146a9001040800021408000c4
:100bb80018c0b3000200200003042400d7fe070079
:100bc8000000e000010034000044eb000804e000ed
:100bd8000800320010408000214080006011b800f9
:100be800d4fe07000000e00002003200a166a80061
:100bf80001003700a166a900104080002140800054
:100c080018c0b3000200200003042400c5fe07003a
:100c18000000e00001003c000044eb000804e00094
:100c280002003200a126a80001003700a126a90071
:100c380093ff07004f0478000080fa0000000600c8
:100c48000000fa00540107000000eb0090ff0700c5
:100c58008bff0700205c2000460007004d000700be
:100c68000000eb00b7ff07000004e00004003200ba
:100c78000000eb00acff07000040880002003700ce
:100c88000040800000408800004080008000eb00a9
:100c9800a6fe070002002000030a2400e5fe070064
:100ca80002002c00f34724005afe07001040880079
:100cb80021408800eaff37000000fa009021ef0089
:100cc80020002000900c880000022800a00c88005a
:100cd800504080000000e00002003a00806b2000d5
:100ce800240007008860a9009860a800c08220003e
:100cf8008040eb00014878000080fa000000060000
:100d08000200fa00000f78009e007800910c88001d
:100d1800c08220008040eb00014878000080fa0083
:100d2800000006000000fa00900c80000080fa0025
:100d3800000006000200fa00000f78009e0078000c
:100d4800810c8800c08220008040eb0001487800b8
:100d58000080fa00000006000000fa00800c800005
:100d68000080fa00000006000000fa000080fa0087
:100d7800000006000200fa00000f78009860a90041
:100d88009e007800514088009860a8000080fa0012
:100d9800000006000000fa00c08220008040eb003e
:100da800014878009860a80095e1a8000080fa0042
:100db800000006000000fa0095e1a9009860a9006b
:100dc8000080fa00000006000200fa00c08220003d
:100dd800104f78001e4078000004e0000300320045
:100de800c08220008040eb00014878001e40780057
:100df8000080fa00000006000000fa00d0822000ff
:100e0800104078000080fb000080fa000000060017
:100e18000000fa00d08220008040eb0001487800f2
:100e28000080fa00000006000000fa006426ef00c7
:100e38007826ef008c26ef00a026ef00b426ef00fe
:100e4800c826ef00dc26ef00f026ef00f06f2c003c
:100e5800003388000080eb00a0338800e001270001
:100e680040348800f01f2f00e0348800f03f200055
:100e780080358800f01b230020368800f03c2f00c6
:100e8800c036880010002000603788007226ef0006
:100e98008626ef009a26ef00ae26ef00c226ef0066
:100ea800d626ef00ea26ef00fe26ef007026ef00b8
:100eb8008426ef009826ef00ac26ef00c026ef004e
:100ec800d426ef00e826ef00fc26ef007226ef009c
:100ed8008626ef009a26ef00ae26ef00c226ef0026
:100ee800d626ef00ea26ef00fe26ef007026ef0078
:100ef8008426ef009826ef00ac26ef00c026ef000e
:100f0800d426ef00e826ef00fc26ef006626ef0067
:100f18007a26ef008e26ef00a226ef00b626ef0015
:100f2800ca26ef00de26ef00f226ef00000c2000b4
:100f380040338800c0ff2f00e03388000001200004
:100f480080348800000c2000203588008021200093
:100f5800c0358800003c2000003788000080fa0077
:100f6800000006000000fa0040002800a0398800b0
:100f78003627ef003827ef003a27ef003c27ef002d
:100f88003e27ef004027ef004227ef004427ef00fd
:100f98004627ef004c27ef00807d20000500070062
:100fa8000080fa00000006000000fa000080fa0045
:100fb800000006000200fa00000f78001e0078000a
:100fc800304088000080fa00000006000000fa00a7
:100fd8004104800000002200008060000000e00062
:100fe80006003200304080000000e00002003200bd
:100ff800304080000000010089a0a9000080fa00ac
:10100800000006000000fa003427a8000080fa005b
:10101800000006000000fa003427a9000080fa004a
:10102800000006000800fa0030079800b039800078
:101038004200de007f4060000080fb00200798002f
:1010480000702000100798000000eb00000f7800e7
:101058000b0037001e00780000004000be00900022
:10106800008040009e009000910078000108780000
:101078001e0090000080e800100798001e0fe8008e
:101088009e0078002e009000808f5000f1ff3600ff
:101098001e0078000080fa00000006000000fa0038
:1010a80000002300100888000621ef006821ef00e7
:1010b8006a21ef000c21ef000e21ef007821ef00ec
:1010c8007c21ef007e21ef008021ef008221ef00dc
:1010d8008421ef008621ef000001eb00800720004b
:1010e800a109200013102000804978008149780068
:1010f800824978000001eb0060042000710520009f
:1011080003102000804978008149780082497800de
:081118000080fa00000006004f
:020000040000fa
:101120000608000002000000800000000c0800001b
:1011300020000000800000000808000002000000fd
:1011400082000000ffff00002c08000002000000e9
:10115000800000000a08000002000000800000007b
:1011600000080000060000008000000000000000f1
:020000040000fa
:101170000200fa00000f78009e00780041408800cd
:10118000ffff37000000fa00c080200080077800d1
:1011900040822000000188000080fa000000060064
:1011a0000000fa0022ff0700beff0700040007004e
:1011b0006eff0700c2fe07000080fa000000060074
:1011c0000000fa0041058000f0ff28000080600068
:1011d00000c0a000400588000080fa000000060062
:020000040000fa
:02000004000af0
:04be0000ffffff0041
:020000040000fa
:02000004000af0
:04be2000ffffff0021
:020000040000fa
:02000004000af0
:04be300078ffff0098
:020000040000fa
:02000004000af0
:04be3800b7ffff0051
:020000040000fa
:02000004000af0
:04be40009fffff0061
:020000040000fa
:02000004000af0
:04be4800ffffff00f9
:020000040000fa
:02000004000af0
:04be5000dfffff0011
:020000040000fa
:02000004000af0
:04be58000000ff00e7
:020000040000fa
:02000004000af0
:04be60000000ff00df
:020000040000fa
:02000004000af0
:04be68000000ff00d7
:020000040000fa
:02000004000af0
:04be70000000ff00cf
:020000040000fa
:02000004000af0
:04be7800ffffff00c9
:020000040000fa
:02000004000af0
:04be8000ffffff00c1
:020000040000fa
:020000040100f9
:04300000ffffff00cf
:00000001FF
